S01A0000726C5F76325F746573745F777332383132622E737265638E
S11300000C943E000C945B000C945B000C945B001D
S11300100C945B000C945B000C945B000C941D032B
S11300200C94F6020C945B000C945B000C945B0043
S11300300C945B000C94B3030C945B000C945B0075
S11300400C945B000C945B000C945B000C945B00C0
S11300500C945B000C945B000C945B000C945B00B0
S11300600C945B000C94C6020C945B000C945B0033
S11300700C945B000C945B000C945B0011241FBE79
S1130080CFEFCDBFDFE3DEBF1CE3A0E0BCE3ECEBCE
S1130090F6E102C005900D92A833B107D9F72CE31D
S11300A0A8E3BCE301C01D92AE37B207E1F70E949A
S11300B060000C945C0B0C9400000E94CF00089527
S11300C00E945D0078940E94190322E044E054E009
S11300D068E170E082E50E941B0A4BE264E086E07E
S11300E00E944D08FACFE0E0F6E081E0828380834D
S11300F080E0089580E0089540E168ED81E690E0B5
S11301000E94EA0280E0089580E00895E0E1F4E0CE
S1130110808188608193E83184E0F807C9F7E0E3DF
S1130120F4E0808188608193E83384E0F807C9F7BC
S1130130E0E5F4E0808188608193E83584E0F807A5
S1130140C9F708952398E3E3F4E08081877F8083EF
S11301502A98229A0E94DF0308950C98049A0E9418
S1130160EE0208952898209AE0E3F4E08081877FE6
S1130170808380818F7780838081887F80832998A2
S1130180219AE1E3F4E08081877F808380818F7707
S113019080838081887F80830E94BF0208950E94AB
S11301A086000998019A0A98029A0B98039A0D9866
S11301B0059A0E98069A0F98079A2C98249A2598CF
S11301C0E5E3F4E08081877F80834398E3E5F4E00E
S11301D08081877F80830E947C000E940A030E94A2
S11301E073000E94A2000E94FC030E94AD000E94C2
S11301F084000E94A3030E94B2000E947A000E941D
S1130200A5030895E0E1F8E0848188608483858112
S113021081608583E8E3FCE380818E7F808313869D
S11302208EE00895E8E3FCE380818E7F808313866B
S113023080E00895E8E3FCE3808188608083818125
S1130240880F81608093170884E008950E941A0142
S113025008950E941A010895E8E3FCE38081886010
S113026080838181880F8093170883E008950E941A
S11302702C010895E0E1F8E084818B7F848384E09D
S11302800895E0E1F8E084818B7F848383E008951E
S1130290E0E1F8E084818460848388E00895E0E10B
S11302A0F8E0848188608483858181608583E8E3C4
S11302B0FCE380818E7F808382E083878EE00895D3
S11302C0CF93DF93E0E1F8E08581806C85838091B2
S11302D0383C83FF07C08091150884FF03C08FE07A
S11302E08093423C8091150883FF03C080E1809392
S11302F0423C8091150882FF03C081E18093423C17
S1130300C8E3DCE3EA85F0E0EE0FFF1FEA5FF34C9D
S11303100190F081E02D09958A87DF91CF910895AE
S1130320E0E1F8E0858188608583A8E3BCE382E0AE
S11303301B968C931B971E96ED91FC911F975A96D2
S11303408D919C915B970995823019F0833021F04F
S113035006C00E941A0108950E942C0108950E946B
S113036002010895E0E1F8E084818460848384815B
S113037083608483E8E3FCE380818E7F808313863B
S113038080E00895CF93DF93E8E3FCE38081877FE7
S1130390808384819581019731F4E0E1F8E08481E0
S11303A08460848305C0E0E1F8E084818B7F8483EA
S11303B0E8E3FCE384819581019784839583892B09
S11303C0A9F0DF01C281D381E0E1F8E08085888370
S11303D012968D919C911397019612968D939C93EE
S11303E0139784818260848384E026C0A8E3BCE3FD
S11303F01296ED91FC9113978091180880831296C0
S11304008D919C911397019612968D939C931397BB
S11304108C9184608C931C96ED91FC911D97589659
S11304208D919C91599709958250823018F40E94BD
S1130430480102C00E94B201DF91CF910895E0E12A
S1130440F8E0848183608483E8E3FCE380818E7F29
S11304508083138680E00895A8E3BCE38C91877FB2
S11304608C9382E01B968C931B975096ED91FC9194
S113047051975C968D919C915D970995823019F006
S1130480833021F006C00E941A0108950E942C01B5
S113049008950E941F0208958091150884FF19C0D1
S11304A0A8E3BCE35296ED91FC9153975E968D912F
S11304B09C915F970995823019F0833021F006C032
S11304C00E941A0108950E942C0108950E941F029F
S11304D00895E8E3FCE38081877F8083A281B38170
S11304E0CD010196828393838C9180931808848133
S11304F09581019784839583892B11F485E0089570
S113050083E008958091150884FF19C0A8E3BCE333
S11305105296ED91FC9153975E968D919C915F97C5
S11305200995823019F0833021F006C00E941A0127
S113053008950E942C0108950E941F020895A8E3C3
S1130540BCE38C9184608C931C96ED91FC911D9777
S113055058968D919C9159970995833039F0843040
S113056041F0823049F40E941A0108950E942C013E
S113057008950E944C0208950E941F020895E0E12C
S1130580F8E08FE5868381EC838308951F920F92B0
S11305900FB60F9211242F933F934F935F936F9352
S11305A07F938F939F93AF93BF93EF93FF930E9497
S11305B06001FF91EF91BF91AF919F918F917F91D6
S11305C06F915F914F913F912F910F900FBE0F90BC
S11305D01F901895FC0164BF40830895E0E0FAE0A1
S11305E085E0818381E0808380E008951F920F92EB
S11305F00FB60F9211248F9381E080930B0A8091A0
S11306005C3C8F5F80935C3C8F910F900FBE0F908A
S11306101F901895E0E4F1E081818111FDCFE0E4C1
S1130620F1E01082178281E4808B81E0828B80E08C
S1130630089581E08093603C08951F920F920FB655
S11306400F9211248F939F938091603C882309F427
S113065070C080915F3C8130F9F030F08230A1F1BC
S1130660833009F449C05FC080915D3C90915E3C49
S1130670CF9740F010925D3C10925E3C81E08093F5
S11306805F3C099A80915D3C90915E3C0196809319
S11306905D3C90935E3C4DC080915D3C90915E3C8E
S11306A0059740F010925D3C10925E3C82E080938E
S11306B05F3C099880915D3C90915E3C01968093EB
S11306C05D3C90935E3C35C080915D3C90915E3C76
S11306D00A9740F010925D3C10925E3C83E0809358
S11306E05F3C099A80915D3C90915E3C01968093B9
S11306F05D3C90935E3C1DC080915D3C90915E3C5E
S1130700059738F010925D3C10925E3C10925F3C6D
S1130710099880915D3C90915E3C019680935D3C8C
S113072090935E3C06C010925F3C10925D3C109228
S11307305E3C81E0809353019F918F910F900FBE97
S11307400F901F90189580E00895E0E4FAE0148675
S113075015861286138611821086148281E08583A1
S1130760108280E008951F920F920FB60F92112409
S11307702F933F934F935F936F937F938F939F93A5
S1130780AF93BF93EF93FF9381E08093460AE09188
S1130790613CF091623C309709F00995FF91EF912B
S11307A0BF91AF919F918F917F916F915F914F9185
S11307B03F912F910F900FBE0F901F901895E0E07E
S11307C0F8E08DE890E28087918780EC86838AE266
S11307D09CE380937A3C90937B3C80E00895E0E036
S11307E0F8E0948195FFFDCF8093020808950E945C
S11307F0EF0380E090E0089580E008950F931F9345
S11308008095853560F4682F660F860F282F209514
S113081090E0A0E0B0E0BC01CD01822B24C08A3A74
S113082098F48555982F990F980F492F50E060E060
S113083070E0762F652F542F442790958A019B01F1
S1130840092BC901B8010FC08A5A682F660F860F99
S1130850282F209590E0A0E0B0E0DC0199278827BC
S1130860BC01CD01722B1F910F910895CF92DF929D
S1130870EF92FF921F93CF93DF9310E01BC0B70159
S1130880A601CE010E94240921968091653C909195
S1130890643C899FC0011124C817D90784F30E94BE
S11308A06C088FE493EC0197F1F700C000001F5F20
S11308B01F3F91F08091653C9091643C899FC001F9
S11308C01124181619065CF7812F0E94FE036B0190
S11308D07C01C0E0D0E0D3CFDF91CF911F91FF9096
S11308E0EF90DF90CF900895FF920F931F93CF93D3
S11308F0DF93F12C36C0C0E08091633C9F2D809F34
S1130900900D1124892F0E94FE03AB01BC01D09FDE
S1130910C001D19F900D11248C0F911D0E942409B8
S1130920CF5FD091643CCD1738F30F5F1F4F809198
S1130930653C90E0081719071CF007C000E010E0C0
S1130940D091643CD111D7CFF0CF0E946C088FE4D2
S113095093EC0197F1F700C00000F3949FEFF916B0
S113096029F08091653C8111E9CFEFCFDF91CF91E0
S11309701F910F91FF900895CF92DF92EF92FF9213
S1130980CF93DF93C12CD12C760125C0C0E0D0E0F9
S1130990B701A601CE010E94240921968091653CED
S11309A09091643C899FC0011124C817D90784F32E
S11309B00E946C0887E893E10197F1F700C00000FA
S11309C09FEFC91AD90AE90AF90A8FEFC816D104A8
S11309D0E104F10459F18091653C9091643C899F54
S11309E0C0011124181619068CF2E2CFC0E0D0E041
S11309F0B701A601CE010E94240921968091653C8D
S1130A009091643C899FC0011124C817D90784F3CD
S1130A100E946C0887E893E10197F1F700C0000099
S1130A2091E0C91AD108E108F10859F08091653CB8
S1130A309091643C899FC001112418161906B4F2E0
S1130A40E7CFDF91CF91FF90EF90DF90CF900895A3
S1130A508F929F92AF92BF92CF92DF92EF92FF92CA
S1130A60CF93DF93C12CD12C760123C0B501A4010F
S1130A70CE010E94240921968091653C9091643CAA
S1130A80899FC0011124C817D90784F30E946C08F8
S1130A9087E893E10197F1F700C000009FEFC91ABE
S1130AA0D90AE90AF90A8FEFC816D104E104F1045E
S1130AB079F18091653C9091643C899FC001112437
S1130AC0181619061CF788249C2CAD2CBE2CC0E0EB
S1130AD0D0E0CCCFB501A401CE010E942409219617
S1130AE08091653C9091643C899FC0011124C81792
S1130AF0D90784F30E946C0887E893E10197F1F722
S1130B0000C0000091E0C91AD108E108F10889F099
S1130B108091653C9091643C899FC0011124181612
S1130B20190644F788249C2CAD2CBE2CC0E0D0E0E0
S1130B30D1CFDF91CF91FF90EF90DF90CF90BF9016
S1130B40AF909F908F9008958F929F92AF92BF9293
S1130B50CF92DF92EF92FF92CF93DF93C12CD12CEF
S1130B60760123C0B501A401CE010E942409219677
S1130B708091653C9091643C899FC0011124C81701
S1130B80D90784F30E946C0887E893E10197F1F791
S1130B9000C000009FEFC91AD90AE90AF90A8FEFC9
S1130BA0C816D104E104F10471F18091653C90917F
S1130BB0643C899FC0011124181619061CF75601BC
S1130BC099248824C0E0D0E0CDCFB501A401CE01A2
S1130BD00E94240921968091653C9091643C899FF0
S1130BE0C0011124C817D90784F30E946C0887E850
S1130BF093E10197F1F700C0000091E0C91AD10810
S1130C00E108F10881F08091653C9091643C899FF2
S1130C10C00111241816190644F756019924882492
S1130C20C0E0D0E0D2CFDF91CF91FF90EF90DF9082
S1130C30CF90BF90AF909F908F9008958F929F9286
S1130C40AF92BF92CF92DF92EF92FF92CF93DF9356
S1130C50C12CD12C760123C0B501A401CE010E9480
S1130C60240921968091653C9091643C899FC00140
S1130C701124C817D90784F30E946C0887E893E10C
S1130C800197F1F700C000009FEFC91AD90AE90AD9
S1130C90F90A8FEFC816D104E104F104D1F180916F
S1130CA0653C9091643C899FC00111241816190673
S1130CB01CF7560199248824BE2DAD2D9C2D882720
S1130CC0882A992AAA2ABB2A8C289D28AE28BF28BC
S1130CD0C0E0D0E0C1CFB501A401CE010E94240937
S1130CE021968091653C9091643C899FC0011124B8
S1130CF0C817D90784F30E946C0887E893E1019729
S1130D00F1F700C0000091E0C91AD108E108F10828
S1130D10E1F08091643C9091653C899FC00111246D
S1130D201816190644F7560199248824BE2DAD2DB2
S1130D309C2D8827882A992AAA2ABB2A8C289D2890
S1130D40AE28BF28C0E0D0E0C6CFDF91CF91FF909E
S1130D50EF90DF90CF90BF90AF909F908F900895C9
S1130D602F923F924F925F926F927F928F929F92B7
S1130D70AF92BF92CF92DF92EF92FF920F931F93A5
S1130D80CF93DF93CDB7DEB7A697CDBFDEBF9091EB
S1130D90653C8091643C989F9001112429A33AA357
S1130DA02BA33CA3232B09F462C14EEF5FEF4F83C7
S1130DB058878DEF9FEF8D839E832CEF3FEF2B831E
S1130DC03C834BEF5FEF49835A830F2EFAEF2F2EAC
S1130DD033243A94F02D0F2EF9EF4F2E55245A94C4
S1130DE0F02D0F2EF8EF6F2E77247A94F02D0F2E1E
S1130DF0F7EF8F2E99249A94F02D0F2EF6EFAF2E45
S1130E00BB24BA94F02D0F2EF5EFCF2EDD24DA9407
S1130E10F02D0F2EF4EFEF2EFF24FA94F02D0FEFA8
S1130E201FEF80E090E08DA39EA38DA19EA1098772
S1130E301A87112334F42BA13CA1200F311F2987D9
S1130E403A874F8158854B875C87552334F42BA10F
S1130E503CA1240F351F2B873C874D815E814D8734
S1130E605E87552334F42BA13CA1240F351F2D8715
S1130E703E874B815C814F87588B552334F42BA1DB
S1130E803CA1240F351F2F87388B49815A81498B08
S1130E905A8B552334F42BA13CA1240F351F298BE5
S1130EA03A8B2B8A3C8A332034F44BA15CA1420D4B
S1130EB0531D4B8B5C8B4D8A5E8A552034F42BA1D9
S1130EC03CA1240D351D2D8B3E8B6F8A788E7720A7
S1130ED034F44BA15CA1460D571D4F8B588F898E5E
S1130EE09A8E992034F42BA13CA1280D391D298F09
S1130EF03A8FAB8EBC8EBB2034F44BA15CA14A0D5F
S1130F005B1D4B8F5C8FCD8EDE8EDD2034F42BA1E8
S1130F103CA12C0D3D1D2D8F3E8FEF8EF8A2FF209E
S1130F2034F44BA15CA14E0D5F1D4F8F58A320E0FC
S1130F3040E06FEF0E94D40820E04DE76FEF898511
S1130F409A850E94D40820E04FEF6FEF8B859C8533
S1130F500E94D40820E04FEF6DE78D859E850E94A6
S1130F60D40820E04FEF60E08F8598890E94D40870
S1130F702DE74FEF60E089899A890E94D4082FEF0A
S1130F804FEF60E08B899C890E94D4082FEF4DE7D6
S1130F9060E08D899E890E94D4082FEF40E060E0D4
S1130FA08F89988D0E94D4082FEF40E06DE7898DDA
S1130FB09A8D0E94D4082FEF40E06FEF8B8D9C8DAB
S1130FC00E94D4082DE740E06FEF8D8D9E8D0E9426
S1130FD0D40820E040E060E08F8D98A10E94D408FE
S1130FE00E946C085FE38DE093E051508040904094
S1130FF0E1F700C000002DA13EA12F5F3F4F2DA3BC
S11310003EA30F5F1F4F3FEFE31AF30A4FEFC41ADB
S1131010D40A5FEFA51AB50A8FEF881A980A9FEFD2
S1131020691A790A2FEF421A520A3FEF231A330A38
S113103049815A814F5F5F4F49835A838B819C81D9
S113104001968B839C832D813E812F5F3F4F2D839F
S11310503E834F8158854F5F5F4F4F83588789A1E7
S11310609AA12DA13EA18217930709F0DECEA69680
S1131070CDBFDEBFDF91CF911F910F91FF90EF9015
S1131080DF90CF90BF90AF909F908F907F906F90A4
S11310905F904F903F902F9008958093653C6093AC
S11310A0643C4093633C0E94BC040E9428050E9457
S11310B0A4050E941E060E9436040E9436040E9463
S11310C074040E9474040E949C090E94B0060E9449
S11310D0B0060E94B0060895CF93DF93CDB7DEB774
S11310E02797CDBFDEBF80916C3C90916D3C892BDE
S11310F009F454C0F8948091703C9091713C8983B8
S11311009A83E0916C3CF0916D3CDF0111968081F3
S11311108B83E091663CF091673C208181E090E014
S113112000906F3C02C0880F991F0A94E2F7922F37
S1131130982B9C839081809589238D838D818E83C8
S113114088E08F835C816D814B813F812E81898111
S11311509A81508347FD252F3A95000000C02083D3
S1131160262F49F0441F00C000C06083000000C067
S113117000C000C0EECF38E04D9100006083000055
S113118000C000C0019729F7E093663CF093673CE8
S11311904B833F832E8389839A8378942796CDBF8C
S11311A0DEBFDF91CF910895E091723CF091733CE2
S11311B08E179F0708F047C0E0916E3CEE2399F02C
S11311C0F0E06E9FD0016F9FB00D11246B2F4E9FE6
S11311D0D0014F9FB00D11244B2F2E9FD0012F9F74
S11311E0B00D11242B2F5091683C30916B3C53135C
S11311F00CC0FC01EE0FFF1F8E0F9F1FE0916C3C93
S1131200F0916D3C8E0F9F1F0EC0880F991F880FA1
S1131210991FE0916C3CF0916D3C8E0F9F1FFC0177
S1131220E50FF11D1082FC01E30FF11D6083309185
S11312306A3CFC01E30FF11D40833091693CFC01E1
S1131240E30FF11D208308958F929F92AF92BF9276
S1131250CF92DF92EF92FF92CF93DF932091723C73
S11312603091733C8217930708F05BC04B01AA24AA
S1131270BB24B82DC52ED62EE72EFF24AC2DF42F7B
S113128020916E3C222399F0E22FF0E08E9ED00153
S11312908F9EB00D1124CE9EE001CF9ED00D11245F
S11312A0AD2F4E9FE0014F9FD00D1124FD2FE091F3
S11312B0683C30916B3CE3130CC0AC01440F551FE8
S11312C0840F951F40916C3C50916D3C840F951F89
S11312D018C0880F991F880F991FC0916C3CD0913A
S11312E06D3C8C0F9D1F472F552766277727EC01F0
S11312F0CE0FD11D222321F0429FA0011124452F9E
S11313004883EC01C30FD11DB88320916A3CEC01E2
S1131310C20FD11DA8832091693CDC01A20FB11D2D
S1131320FC93DF91CF91FF90EF90DF90CF90BF902F
S1131330AF909F908F9008954091703C5091713C74
S113134060E070E080916C3C90916D3C0E94550B84
S113135008950F931F93CF93DF938C0180916C3C7E
S113136090916D3C009711F00E94CC0A9091683CDA
S113137080916B3C981719F084E090E002C083E000
S113138090E0809FE001819FD00D909FD00D1124AB
S1131390C093703CD093713CCE010E94340A809378
S11313A06C3C90936D3C009751F0AE0160E070E0AE
S11313B00E94550B0093723C1093733C08C010922A
S11313C0703C1092713C1092723C1092733CDF910D
S11313D0CF911F910F91089541E02091683C909125
S11313E06B3C291340E0382F32953695369533708F
S11313F03093683C982F92959F70937090936B3CB8
S1131400282F26952695237020936A3C8370809319
S1131410693C60916C3C70916D3C672B59F081E0A4
S1131420391380E0481731F08091723C9091733CFD
S11314300E94A9090895EF92FF920F931F93CF93EF
S11314407B018A01C22F0E94EC09C7010E94A909ED
S11314500093663C1093673CC0936F3CCF911F91FF
S11314600F91FF90EF9008950F931F93CF93DF9305
S11314708230910510F482E090E0E091763CF091A6
S1131480773C20E030E0A0E0B0E0309719F14081F3
S113149051810281138148175907C8F084179507B1
S11314A069F4109731F012960C93129713961C93CB
S11314B027C00093763C1093773C22C02115310558
S11314C019F04217530718F49A01BD01EF01DF0127
S11314D0F801DBCF21153105F9F0281B390B243035
S11314E0310580F48A819B816115710521F0FB012E
S11314F08283938304C08093763C9093773CFE016F
S1131500329644C0FE01E20FF31F8193919322505F
S11315103109288339833AC02091743C3091753C59
S1131520232B41F42091023C3091033C2093743CE2
S11315303093753C2091003C3091013C21153105DC
S113154041F42DB73EB74091043C5091053C241B17
S1131550350BE091743CF091753CE217F307A0F46D
S11315602E1B3F0B2817390778F0AC014E5F5F4FF5
S11315702417350748F04E0F5F1F4093743C509377
S1131580753C8193919302C0E0E0F0E0CF01DF91DC
S1131590CF911F910F910895CF93DF93009709F492
S11315A081C0FC01329712821382A091763CB091E3
S11315B0773C109781F420813181820F931F209111
S11315C0743C3091753C2817390751F5E093743C0D
S11315D0F093753C67C0ED0120E030E0CE17DF07E3
S11315E040F44A815B819E0141155105F1F0EA0105
S11315F0F5CFC283D38340815181840F951FC817CF
S1131600D90759F488819981840F951F02968083A4
S113161091838A819B81828393832115310529F4E7
S1131620E093763CF093773C3DC0E901EA83FB8389
S113163049915991C40FD51FEC17FD0761F48081BE
S11316409181840F951F0296E90188839983828191
S113165093818A839B83E0E0F0E012968D919C91C4
S11316601397009719F0FD01DC01F7CF8D919C9140
S113167011979D012E5F3F4F820F931F2091743C61
S11316803091753C2817390769F4309729F4109282
S1131690763C1092773C02C012821382A093743C71
S11316A0B093753CDF91CF910895DC0101C06D9337
S10F16B041505040E0F70895F894FFCF3B
S11316BC00007E3C200012011A012C014C02C201D4
S11316CC82022901370126011F023A014101B201AC
S11316DC480102012C0290014F010000000200009D
S10B16EC0000F70300000000F8
S9030000FC
